{
  "contractName": "Election",
  "abi": [
    {
      "inputs": [
        {
          "internalType": "uint256",
          "name": "startTime_",
          "type": "uint256"
        },
        {
          "internalType": "uint256",
          "name": "endTime_",
          "type": "uint256"
        }
      ],
      "stateMutability": "nonpayable",
      "type": "constructor"
    },
    {
      "inputs": [
        {
          "internalType": "uint256",
          "name": "",
          "type": "uint256"
        }
      ],
      "name": "students",
      "outputs": [
        {
          "internalType": "string",
          "name": "studentName",
          "type": "string"
        },
        {
          "internalType": "uint256",
          "name": "studentId",
          "type": "uint256"
        }
      ],
      "stateMutability": "view",
      "type": "function"
    },
    {
      "inputs": [
        {
          "internalType": "uint256",
          "name": "juryAddress",
          "type": "uint256"
        }
      ],
      "name": "getStudentsList",
      "outputs": [
        {
          "components": [
            {
              "internalType": "string",
              "name": "studentName",
              "type": "string"
            },
            {
              "internalType": "uint256",
              "name": "studentId",
              "type": "uint256"
            }
          ],
          "internalType": "struct Types.Student[]",
          "name": "",
          "type": "tuple[]"
        }
      ],
      "stateMutability": "view",
      "type": "function"
    },
    {
      "inputs": [
        {
          "internalType": "uint256",
          "name": "juryAddress",
          "type": "uint256"
        }
      ],
      "name": "didCurrentJuryInterviewed",
      "outputs": [
        {
          "internalType": "bool",
          "name": "juryInterviewed_",
          "type": "bool"
        }
      ],
      "stateMutability": "view",
      "type": "function"
    },
    {
      "inputs": [
        {
          "internalType": "uint256[3]",
          "name": "marks",
          "type": "uint256[3]"
        },
        {
          "internalType": "uint256",
          "name": "juryAddress",
          "type": "uint256"
        },
        {
          "internalType": "uint256",
          "name": "currentTime_",
          "type": "uint256"
        }
      ],
      "name": "interview",
      "outputs": [],
      "stateMutability": "nonpayable",
      "type": "function"
    },
    {
      "inputs": [],
      "name": "getElectionEndTime",
      "outputs": [
        {
          "internalType": "uint256",
          "name": "electionEndTime_",
          "type": "uint256"
        }
      ],
      "stateMutability": "view",
      "type": "function"
    },
    {
      "inputs": [
        {
          "internalType": "uint256",
          "name": "currentTime_",
          "type": "uint256"
        }
      ],
      "name": "getResults",
      "outputs": [
        {
          "components": [
            {
              "internalType": "string",
              "name": "resultName",
              "type": "string"
            },
            {
              "internalType": "uint256",
              "name": "resultMarks",
              "type": "uint256"
            },
            {
              "internalType": "uint256",
              "name": "resultId",
              "type": "uint256"
            }
          ],
          "internalType": "struct Types.Results[]",
          "name": "",
          "type": "tuple[]"
        }
      ],
      "stateMutability": "view",
      "type": "function"
    }
  ],
  "bytecode": "0x60806040523480156200001157600080fd5b506040516200111b3803806200111b833981016040819052620000349162000618565b6200003e620003ed565b620003cc6040805160808082018352600b8252600060208084018281528486018381526060808701858152600180875280865297517fcc69885fda6bcc1a4ace058b4a62bf5e179ea78fd58a1ccd71c22cc9b688792f5592517fcc69885fda6bcc1a4ace058b4a62bf5e179ea78fd58a1ccd71c22cc9b68879305590517fcc69885fda6bcc1a4ace058b4a62bf5e179ea78fd58a1ccd71c22cc9b68879315590517fcc69885fda6bcc1a4ace058b4a62bf5e179ea78fd58a1ccd71c22cc9b68879325585518085018752600c81528083018481528188018581528284018681526002875288865292517fd9d16d34ffb15ba3a3d852f0d403e2ce1d691fb54de27ac87cd2f993f3ec330f5590517fd9d16d34ffb15ba3a3d852f0d403e2ce1d691fb54de27ac87cd2f993f3ec331055517fd9d16d34ffb15ba3a3d852f0d403e2ce1d691fb54de27ac87cd2f993f3ec331155517fd9d16d34ffb15ba3a3d852f0d403e2ce1d691fb54de27ac87cd2f993f3ec33125585518085018752600d81528083018481528188018581528284018681526003875288865292517f7dfe757ecd65cbd7922a9c0161e935dd7fdbcc0e999689c7d31633896b1fc60b5590517f7dfe757ecd65cbd7922a9c0161e935dd7fdbcc0e999689c7d31633896b1fc60c55517f7dfe757ecd65cbd7922a9c0161e935dd7fdbcc0e999689c7d31633896b1fc60d55517f7dfe757ecd65cbd7922a9c0161e935dd7fdbcc0e999689c7d31633896b1fc60e5585518085018752600e81528083018481528188018581528284018681526004875288865292517fedc95719e9a3b28dd8e80877cb5880a9be7de1a13fc8b05e7999683b6b5676435590517fedc95719e9a3b28dd8e80877cb5880a9be7de1a13fc8b05e7999683b6b56764455517fedc95719e9a3b28dd8e80877cb5880a9be7de1a13fc8b05e7999683b6b56764555517fedc95719e9a3b28dd8e80877cb5880a9be7de1a13fc8b05e7999683b6b5676465585519384018652600f8452838201838152958401838152908401838152600590935293905290517fe2689cd4a84e23ad2f564004f1c9013e9589d260bde6380aba3ca7e09e4df40c5591517fe2689cd4a84e23ad2f564004f1c9013e9589d260bde6380aba3ca7e09e4df40d55517fe2689cd4a84e23ad2f564004f1c9013e9589d260bde6380aba3ca7e09e4df40e55517fe2689cd4a84e23ad2f564004f1c9013e9589d260bde6380aba3ca7e09e4df40f55565b600591909155600655600480546001600160a01b03191633179055620007ec565b60408051600380825260808201909252600091816020015b604080518082019091526060815260006020820152815260200190600190039081620004055750506040805160808101825260059181019182526412d95d985b60da1b606082015290815260016020820152815191925090829060009062000471576200047162000653565b602002602001018190525060405180604001604052806040518060400160405280600681526020016520ba3430b93b60d11b8152508152602001600281525081600181518110620004c657620004c662000653565b602002602001018190525060405180604001604052806040518060400160405280600481526020016326b7b7b760e11b815250815260200160038152508160028151811062000519576200051962000653565b602002602001018190525060005b8151811015620006145781818151811062000546576200054662000653565b60200260200101516002600084848151811062000567576200056762000653565b60200260200101516020015181526020019081526020016000206000820151816000019081620005989190620006f8565b50602082015181600101559050506000828281518110620005bd57620005bd62000653565b60209081029190910181015182546001810184556000938452919092208251600290920201908190620005f19082620006f8565b5060208201518160010155505080806200060b90620007c4565b91505062000527565b5050565b600080604083850312156200062c57600080fd5b505080516020909101519092909150565b634e487b7160e01b600052604160045260246000fd5b634e487b7160e01b600052603260045260246000fd5b600181811c908216806200067e57607f821691505b6020821081036200069f57634e487b7160e01b600052602260045260246000fd5b50919050565b601f821115620006f357600081815260208120601f850160051c81016020861015620006ce5750805b601f850160051c820191505b81811015620006ef57828155600101620006da565b5050505b505050565b81516001600160401b038111156200071457620007146200063d565b6200072c8162000725845462000669565b84620006a5565b602080601f8311600181146200076457600084156200074b5750858301515b600019600386901b1c1916600185901b178555620006ef565b600085815260208120601f198616915b82811015620007955788860151825594840194600190910190840162000774565b5085821015620007b45787850151600019600388901b60f8161c191681555b5050505050600190811b01905550565b600060018201620007e557634e487b7160e01b600052601160045260246000fd5b5060010190565b61091f80620007fc6000396000f3fe608060405234801561001057600080fd5b50600436106100625760003560e01c806306ead22e146100675780635560b1181461009157806381a60c0d146100a257806384a64382146100c257806389d665ef146100f8578063d5d0701f14610118575b600080fd5b61007a610075366004610645565b61012d565b6040516100889291906106a4565b60405180910390f35b600654604051908152602001610088565b6100b56100b0366004610645565b6101e9565b60405161008891906106c6565b6100e86100d0366004610645565b60009081526001602081905260409091200154151590565b6040519015158152602001610088565b61010b610106366004610645565b6103d2565b6040516100889190610747565b61012b6101263660046107c5565b6104cf565b005b6000818154811061013d57600080fd5b906000526020600020906002020160009150905080600001805461016090610851565b80601f016020809104026020016040519081016040528092919081815260200182805461018c90610851565b80156101d95780601f106101ae576101008083540402835291602001916101d9565b820191906000526020600020905b8154815290600101906020018083116101bc57829003601f168201915b5050505050908060010154905082565b606081600654106101f957600080fd5b6000805467ffffffffffffffff811115610215576102156107af565b60405190808252806020026020018201604052801561026a57816020015b61025760405180606001604052806060815260200160008152602001600081525090565b8152602001906001900390816102335790505b50905060005b6000548110156103cb576040518060600160405280600083815481106102985761029861088b565b906000526020600020906002020160000180546102b490610851565b80601f01602080910402602001604051908101604052809291908181526020018280546102e090610851565b801561032d5780601f106103025761010080835404028352916020019161032d565b820191906000526020600020905b81548152906001019060200180831161031057829003601f168201915b505050505081526020016003600080858154811061034d5761034d61088b565b9060005260206000209060020201600101548152602001908152602001600020548152602001600083815481106103865761038661088b565b9060005260206000209060020201600101548152508282815181106103ad576103ad61088b565b602002602001018190525080806103c3906108b7565b915050610270565b5092915050565b60606000805480602002602001604051908101604052809291908181526020016000905b828210156104c4578382906000526020600020906002020160405180604001604052908160008201805461042990610851565b80601f016020809104026020016040519081016040528092919081815260200182805461045590610851565b80156104a25780601f10610477576101008083540402835291602001916104a2565b820191906000526020600020905b81548152906001019060200180831161048557829003601f168201915b50505050508152602001600182015481525050815260200190600101906103f6565b505050509050919050565b806005548110156104df57600080fd5b6006548111156104ee57600080fd5b60008381526001602081815260409283902083516080810185528154815292810154918301829052600281015493830193909352600390920154606082015284911561053957600080fd5b60408101511561054857600080fd5b60608101511561055757600080fd5b85516000868152600160208181526040808420928301949094558901516002820155918801516003909201919091555b60005481101561063c576000600360008084815481106105a9576105a961088b565b9060005260206000209060020201600101548152602001908152602001600020549050876000600381106105df576105df61088b565b60200201516105ee90826108d0565b600360008085815481106106045761060461088b565b906000526020600020906002020160010154815260200190815260200160002081905550508080610634906108b7565b915050610587565b50505050505050565b60006020828403121561065757600080fd5b5035919050565b6000815180845260005b8181101561068457602081850181015186830182015201610668565b506000602082860101526020601f19601f83011685010191505092915050565b6040815260006106b7604083018561065e565b90508260208301529392505050565b60006020808301818452808551808352604092508286019150828160051b87010184880160005b8381101561073957603f198984030185528151606081518186526107138287018261065e565b838b0151878c0152928901519589019590955250948701949250908601906001016106ed565b509098975050505050505050565b60006020808301818452808551808352604092508286019150828160051b87010184880160005b8381101561073957888303603f19018552815180518785526107928886018261065e565b91890151948901949094529487019492509086019060010161076e565b634e487b7160e01b600052604160045260246000fd5b600080600060a084860312156107da57600080fd5b84601f8501126107e957600080fd5b6040516060810181811067ffffffffffffffff8211171561080c5761080c6107af565b60405280606086018781111561082157600080fd5b865b8181101561083b578035835260209283019201610823565b5091979135965050608094909401359392505050565b600181811c9082168061086557607f821691505b60208210810361088557634e487b7160e01b600052602260045260246000fd5b50919050565b634e487b7160e01b600052603260045260246000fd5b634e487b7160e01b600052601160045260246000fd5b6000600182016108c9576108c96108a1565b5060010190565b808201808211156108e3576108e36108a1565b9291505056fea2646970667358221220ce0eb5d9da41706264bb27d05f142f26e28e11dd9e58aff2877d6b4f70982f7e64736f6c63430008110033",
  "immutableReferences": {},
  "source": "// SPDX-License-Identifier: GPL-3.0\r\npragma experimental ABIEncoderV2;\r\npragma solidity >=0.4.25 <0.9.0;\r\n\r\nimport \"./Types.sol\";\r\n\r\n/**\r\n    @title Election \r\n    @author Neel Deep Dandiwala\r\n*/\r\n\r\ncontract Election {\r\n    Types.Student[] public students;\r\n    mapping(uint256 => Types.Jury) jury;\r\n    mapping(uint256 => Types.Student) student;\r\n    mapping(uint256 => uint256) internal resultObtainedMarks;\r\n\r\n    address electionMaster;\r\n    uint256 private electionStartTime;\r\n    uint256 private electionEndTime;\r\n\r\n    constructor(uint256 startTime_, uint256 endTime_){\r\n        initializeStudentDatabase_();\r\n        initializeJuryDatabase_();\r\n        electionStartTime = startTime_;\r\n        electionEndTime = endTime_;\r\n        electionMaster = msg.sender;\r\n    }\r\n\r\n    function getStudentsList(uint256 juryAddress) public view returns (Types.Student[] memory) {\r\n        return students;\r\n    }\r\n\r\n    function didCurrentJuryInterviewed(uint256 juryAddress) public view returns (bool juryInterviewed_) {\r\n        juryInterviewed_ = (jury[juryAddress].marksToFirst != 0);\r\n    }\r\n\r\n    function interview (\r\n        uint256[3] memory marks, uint256 juryAddress, uint256 currentTime_\r\n    ) \r\n        public\r\n        electionIsOpen(currentTime_)\r\n        isEligibleMarks(juryAddress)\r\n    {\r\n        jury[juryAddress].marksToFirst = marks[0];\r\n        jury[juryAddress].marksToSecond = marks[1];\r\n        jury[juryAddress].marksToThird = marks[2];\r\n\r\n        for (uint256 i = 0; i < students.length; i++){\r\n            uint256 resultMarks_ = resultObtainedMarks[students[i].studentId];\r\n            resultObtainedMarks[students[i].studentId] = resultMarks_ + marks[0];\r\n        }\r\n         \r\n    }\r\n\r\n    function getElectionEndTime() public view returns (uint256 electionEndTime_) {\r\n        electionEndTime_ = electionEndTime;\r\n    }\r\n\r\n    function getResults(uint256 currentTime_) public view returns (Types.Results[] memory) {\r\n        require(electionEndTime < currentTime_);\r\n        Types.Results[] memory resultDetails_ = new Types.Results[](\r\n            students.length\r\n        );\r\n        for (uint256 i = 0; i < students.length; i++) {\r\n            resultDetails_[i] = Types.Results({\r\n                resultName: students[i].studentName,\r\n                resultMarks: resultObtainedMarks[students[i].studentId],\r\n                resultId: students[i].studentId\r\n            });\r\n        }\r\n\r\n        return resultDetails_;\r\n    }\r\n\r\n    modifier electionIsOpen(uint256 currentTime_) {\r\n        require(currentTime_ >= electionStartTime);\r\n        require(currentTime_ <= electionEndTime);\r\n        _;\r\n    }\r\n\r\n    modifier isEligibleMarks(uint256 juryAddress_) {\r\n        Types.Jury memory jury_ = jury[juryAddress_];\r\n        \r\n        require(jury_.marksToFirst == 0);\r\n        require(jury_.marksToSecond == 0);\r\n        require(jury_.marksToThird == 0);\r\n        _;\r\n    }\r\n\r\n    modifier isElectionMaster() {\r\n        require(msg.sender == electionMaster);\r\n        _;\r\n    }    \r\n\r\n    function initializeStudentDatabase_() internal {\r\n        Types.Student[] memory students_ =  new Types.Student[](3);\r\n\r\n        students_[0] = Types.Student({\r\n            studentName: \"Keval\",\r\n            studentId: uint256(1)\r\n        });\r\n        students_[1] = Types.Student({\r\n            studentName: \"Atharv\",\r\n            studentId: uint256(2)\r\n        });\r\n        students_[2] = Types.Student({\r\n            studentName: \"Moon\",\r\n            studentId: uint256(3)\r\n        });\r\n\r\n        for(uint256 i = 0; i < students_.length; i++){\r\n            student[students_[i].studentId] = students_[i];\r\n            students.push(students_[i]);\r\n        }\r\n    }\r\n\r\n    function initializeJuryDatabase_() internal {\r\n        jury[uint256(1)] = Types.Jury({\r\n            juryAddress: uint256(11),\r\n            marksToFirst: uint256(0),\r\n            marksToSecond: uint256(0),\r\n            marksToThird: uint256(0)\r\n        });\r\n        jury[uint256(2)] = Types.Jury({\r\n            juryAddress: uint256(12),\r\n            marksToFirst: uint256(0),\r\n            marksToSecond: uint256(0),\r\n            marksToThird: uint256(0)\r\n        });\r\n        jury[uint256(3)] = Types.Jury({\r\n            juryAddress: uint256(13),\r\n            marksToFirst: uint256(0),\r\n            marksToSecond: uint256(0),\r\n            marksToThird: uint256(0)\r\n        });\r\n        jury[uint256(4)] = Types.Jury({\r\n            juryAddress: uint256(14),\r\n            marksToFirst: uint256(0),\r\n            marksToSecond: uint256(0),\r\n            marksToThird: uint256(0)\r\n        });\r\n        jury[uint256(5)] = Types.Jury({\r\n            juryAddress: uint256(15),\r\n            marksToFirst: uint256(0),\r\n            marksToSecond: uint256(0),\r\n            marksToThird: uint256(0)\r\n        });\r\n    }\r\n}",
  "sourcePath": "D:\\Git-project\\GS_Election\\blockchain\\contracts\\Election.sol",
  "compiler": {
    "name": "solc",
    "version": "0.8.17+commit.8df45f5f.Emscripten.clang"
  },
  "schemaVersion": "3.4.10",
  "updatedAt": "2022-11-11T19:21:52.557Z",
  "devdoc": {
    "author": "Neel Deep Dandiwala",
    "kind": "dev",
    "methods": {},
    "title": "Election ",
    "version": 1
  },
  "userdoc": {
    "kind": "user",
    "methods": {},
    "version": 1
  }
}