{
  "contractName": "Election",
  "abi": [
    {
      "inputs": [
        {
          "internalType": "uint256",
          "name": "startTime_",
          "type": "uint256"
        },
        {
          "internalType": "uint256",
          "name": "endTime_",
          "type": "uint256"
        }
      ],
      "stateMutability": "nonpayable",
      "type": "constructor"
    },
    {
      "inputs": [
        {
          "internalType": "uint256",
          "name": "",
          "type": "uint256"
        }
      ],
      "name": "students",
      "outputs": [
        {
          "internalType": "string",
          "name": "studentName",
          "type": "string"
        },
        {
          "internalType": "uint256",
          "name": "studentId",
          "type": "uint256"
        }
      ],
      "stateMutability": "view",
      "type": "function"
    },
    {
      "inputs": [
        {
          "internalType": "uint256",
          "name": "juryAddress",
          "type": "uint256"
        }
      ],
      "name": "getStudentsList",
      "outputs": [
        {
          "components": [
            {
              "internalType": "string",
              "name": "studentName",
              "type": "string"
            },
            {
              "internalType": "uint256",
              "name": "studentId",
              "type": "uint256"
            }
          ],
          "internalType": "struct Types.Student[]",
          "name": "",
          "type": "tuple[]"
        }
      ],
      "stateMutability": "view",
      "type": "function"
    },
    {
      "inputs": [
        {
          "internalType": "uint256",
          "name": "juryAddress",
          "type": "uint256"
        }
      ],
      "name": "didCurrentJuryInterview",
      "outputs": [
        {
          "internalType": "bool",
          "name": "juryInterviewed_",
          "type": "bool"
        }
      ],
      "stateMutability": "view",
      "type": "function"
    },
    {
      "inputs": [
        {
          "internalType": "uint256",
          "name": "juryAddress",
          "type": "uint256"
        }
      ],
      "name": "didCurrentJuryDiscussion",
      "outputs": [
        {
          "internalType": "bool",
          "name": "juryDiscussion_",
          "type": "bool"
        }
      ],
      "stateMutability": "view",
      "type": "function"
    },
    {
      "inputs": [
        {
          "internalType": "uint256[]",
          "name": "marks",
          "type": "uint256[]"
        },
        {
          "internalType": "uint256",
          "name": "juryAddress",
          "type": "uint256"
        },
        {
          "internalType": "uint256",
          "name": "currentTime_",
          "type": "uint256"
        }
      ],
      "name": "interview",
      "outputs": [],
      "stateMutability": "nonpayable",
      "type": "function"
    },
    {
      "inputs": [
        {
          "internalType": "uint256[]",
          "name": "marks",
          "type": "uint256[]"
        },
        {
          "internalType": "uint256",
          "name": "juryAddress",
          "type": "uint256"
        },
        {
          "internalType": "uint256",
          "name": "currentTime_",
          "type": "uint256"
        }
      ],
      "name": "discussion",
      "outputs": [],
      "stateMutability": "nonpayable",
      "type": "function"
    },
    {
      "inputs": [],
      "name": "getElectionEndTime",
      "outputs": [
        {
          "internalType": "uint256",
          "name": "electionEndTime_",
          "type": "uint256"
        }
      ],
      "stateMutability": "view",
      "type": "function"
    },
    {
      "inputs": [
        {
          "internalType": "uint256",
          "name": "currentTime_",
          "type": "uint256"
        }
      ],
      "name": "getResults",
      "outputs": [
        {
          "components": [
            {
              "internalType": "string",
              "name": "resultName",
              "type": "string"
            },
            {
              "internalType": "uint256",
              "name": "resultMarks",
              "type": "uint256"
            },
            {
              "internalType": "uint256",
              "name": "resultId",
              "type": "uint256"
            }
          ],
          "internalType": "struct Types.Results[]",
          "name": "",
          "type": "tuple[]"
        }
      ],
      "stateMutability": "view",
      "type": "function"
    },
    {
      "inputs": [
        {
          "internalType": "uint256",
          "name": "currentTime_",
          "type": "uint256"
        }
      ],
      "name": "getWinner",
      "outputs": [
        {
          "components": [
            {
              "internalType": "string",
              "name": "resultName",
              "type": "string"
            },
            {
              "internalType": "uint256",
              "name": "resultMarks",
              "type": "uint256"
            },
            {
              "internalType": "uint256",
              "name": "resultId",
              "type": "uint256"
            }
          ],
          "internalType": "struct Types.Results",
          "name": "",
          "type": "tuple"
        }
      ],
      "stateMutability": "view",
      "type": "function"
    }
  ],
  "bytecode": "0x60806040523480156200001157600080fd5b50604051620014ee380380620014ee833981016040819052620000349162000544565b6200003e62000319565b620002f86040805160608082018352600b825260006020808401828152848601838152600180855280845295517fcc69885fda6bcc1a4ace058b4a62bf5e179ea78fd58a1ccd71c22cc9b688792f5590517fcc69885fda6bcc1a4ace058b4a62bf5e179ea78fd58a1ccd71c22cc9b688793055517fcc69885fda6bcc1a4ace058b4a62bf5e179ea78fd58a1ccd71c22cc9b68879315584518084018652600c81528082018381528187018481526002855286845291517fd9d16d34ffb15ba3a3d852f0d403e2ce1d691fb54de27ac87cd2f993f3ec330f55517fd9d16d34ffb15ba3a3d852f0d403e2ce1d691fb54de27ac87cd2f993f3ec331055517fd9d16d34ffb15ba3a3d852f0d403e2ce1d691fb54de27ac87cd2f993f3ec33115584518084018652600d81528082018381528187018481526003855286845291517f7dfe757ecd65cbd7922a9c0161e935dd7fdbcc0e999689c7d31633896b1fc60b55517f7dfe757ecd65cbd7922a9c0161e935dd7fdbcc0e999689c7d31633896b1fc60c55517f7dfe757ecd65cbd7922a9c0161e935dd7fdbcc0e999689c7d31633896b1fc60d5584518084018652600e81528082018381528187018481526004855286845291517fedc95719e9a3b28dd8e80877cb5880a9be7de1a13fc8b05e7999683b6b56764355517fedc95719e9a3b28dd8e80877cb5880a9be7de1a13fc8b05e7999683b6b56764455517fedc95719e9a3b28dd8e80877cb5880a9be7de1a13fc8b05e7999683b6b5676455584519283018552600f8352828101828152948301828152600590925292909252517fe2689cd4a84e23ad2f564004f1c9013e9589d260bde6380aba3ca7e09e4df40c5590517fe2689cd4a84e23ad2f564004f1c9013e9589d260bde6380aba3ca7e09e4df40d55517fe2689cd4a84e23ad2f564004f1c9013e9589d260bde6380aba3ca7e09e4df40e55565b600591909155600655600480546001600160a01b0319163317905562000718565b60408051600380825260808201909252600091816020015b604080518082019091526060815260006020820152815260200190600190039081620003315750506040805160808101825260059181019182526412d95d985b60da1b60608201529081526001602082015281519192509082906000906200039d576200039d6200057f565b602002602001018190525060405180604001604052806040518060400160405280600681526020016520ba3430b93b60d11b8152508152602001600281525081600181518110620003f257620003f26200057f565b602002602001018190525060405180604001604052806040518060400160405280600481526020016326b7b7b760e11b81525081526020016003815250816002815181106200044557620004456200057f565b602002602001018190525060005b815181101562000540578181815181106200047257620004726200057f565b6020026020010151600260008484815181106200049357620004936200057f565b60200260200101516020015181526020019081526020016000206000820151816000019081620004c4919062000624565b50602082015181600101559050506000828281518110620004e957620004e96200057f565b602090810291909101810151825460018101845560009384529190922082516002909202019081906200051d908262000624565b5060208201518160010155505080806200053790620006f0565b91505062000453565b5050565b600080604083850312156200055857600080fd5b505080516020909101519092909150565b634e487b7160e01b600052604160045260246000fd5b634e487b7160e01b600052603260045260246000fd5b600181811c90821680620005aa57607f821691505b602082108103620005cb57634e487b7160e01b600052602260045260246000fd5b50919050565b601f8211156200061f57600081815260208120601f850160051c81016020861015620005fa5750805b601f850160051c820191505b818110156200061b5782815560010162000606565b5050505b505050565b81516001600160401b0381111562000640576200064062000569565b620006588162000651845462000595565b84620005d1565b602080601f831160018114620006905760008415620006775750858301515b600019600386901b1c1916600185901b1785556200061b565b600085815260208120601f198616915b82811015620006c157888601518255948401946001909101908401620006a0565b5085821015620006e05787850151600019600388901b60f8161c191681555b5050505050600190811b01905550565b6000600182016200071157634e487b7160e01b600052601160045260246000fd5b5060010190565b610dc680620007286000396000f3fe608060405234801561001057600080fd5b50600436106100935760003560e01c80635560b118116100665780635560b1181461012c57806381a60c0d1461013d57806389d665ef1461015d578063f340331a1461017d578063f4c70e5d146101a357600080fd5b806306ead22e1461009857806322f8d788146100c25780634129b2c9146100f7578063459e994314610117575b600080fd5b6100ab6100a6366004610a6c565b6101b6565b6040516100b9929190610acb565b60405180910390f35b6100e76100d0366004610a6c565b600090815260016020526040902060020154151590565b60405190151581526020016100b9565b61010a610105366004610a6c565b610272565b6040516100b99190610b22565b61012a610125366004610b52565b61048c565b005b6006546040519081526020016100b9565b61015061014b366004610a6c565b61060e565b6040516100b99190610c20565b61017061016b366004610a6c565b6107f7565b6040516100b99190610c82565b6100e761018b366004610a6c565b60009081526001602081905260409091200154151590565b61012a6101b1366004610b52565b6108f4565b600081815481106101c657600080fd5b90600052602060002090600202016000915090508060000180546101e990610cf8565b80601f016020809104026020016040519081016040528092919081815260200182805461021590610cf8565b80156102625780601f1061023757610100808354040283529160200191610262565b820191906000526020600020905b81548152906001019060200180831161024557829003601f168201915b5050505050908060010154905082565b61029660405180606001604052806060815260200160008152602001600081525090565b81600654106102a457600080fd5b6102c860405180606001604052806060815260200160008152602001600081525090565b6000805b6000548110156104835781600360008084815481106102ed576102ed610d32565b9060005260206000209060020201600101548152602001908152602001600020541115610471576003600080838154811061032a5761032a610d32565b906000526020600020906002020160010154815260200190815260200160002054915060405180606001604052806000838154811061036b5761036b610d32565b9060005260206000209060020201600001805461038790610cf8565b80601f01602080910402602001604051908101604052809291908181526020018280546103b390610cf8565b80156104005780601f106103d557610100808354040283529160200191610400565b820191906000526020600020905b8154815290600101906020018083116103e357829003601f168201915b505050505081526020016003600080858154811061042057610420610d32565b90600052602060002090600202016001015481526020019081526020016000205481526020016000838154811061045957610459610d32565b90600052602060002090600202016001015481525092505b8061047b81610d5e565b9150506102cc565b50909392505050565b8060055481101561049c57600080fd5b6006548111156104ab57600080fd5b6000838152600160208181526040928390208351606081018552815481529281015491830182905260020154928201929092528491156104ea57600080fd5b6040810151156104f957600080fd5b60008581526001602081905260408220600201555b6000548110156106055760006003600080848154811061053057610530610d32565b906000526020600020906002020160010154815260200190815260200160002054905087828151811061056557610565610d32565b506001905050600a88838151811061057f5761057f610d32565b6020026020010151111561059257600080fd5b8782815181106105a4576105a4610d32565b6020026020010151816105b79190610d77565b600360008085815481106105cd576105cd610d32565b9060005260206000209060020201600101548152602001908152602001600020819055505080806105fd90610d5e565b91505061050e565b50505050505050565b6060816006541061061e57600080fd5b6000805467ffffffffffffffff81111561063a5761063a610b3c565b60405190808252806020026020018201604052801561068f57816020015b61067c60405180606001604052806060815260200160008152602001600081525090565b8152602001906001900390816106585790505b50905060005b6000548110156107f0576040518060600160405280600083815481106106bd576106bd610d32565b906000526020600020906002020160000180546106d990610cf8565b80601f016020809104026020016040519081016040528092919081815260200182805461070590610cf8565b80156107525780601f1061072757610100808354040283529160200191610752565b820191906000526020600020905b81548152906001019060200180831161073557829003601f168201915b505050505081526020016003600080858154811061077257610772610d32565b9060005260206000209060020201600101548152602001908152602001600020548152602001600083815481106107ab576107ab610d32565b9060005260206000209060020201600101548152508282815181106107d2576107d2610d32565b602002602001018190525080806107e890610d5e565b915050610695565b5092915050565b60606000805480602002602001604051908101604052809291908181526020016000905b828210156108e9578382906000526020600020906002020160405180604001604052908160008201805461084e90610cf8565b80601f016020809104026020016040519081016040528092919081815260200182805461087a90610cf8565b80156108c75780601f1061089c576101008083540402835291602001916108c7565b820191906000526020600020905b8154815290600101906020018083116108aa57829003601f168201915b505050505081526020016001820154815250508152602001906001019061081b565b505050509050919050565b8060055481101561090457600080fd5b60065481111561091357600080fd5b60008381526001602081815260409283902083516060810185528154815292810154918301829052600201549282019290925284911561095257600080fd5b60408101511561096157600080fd5b600085815260016020819052604082208101555b6000548110156106055760006003600080848154811061099757610997610d32565b90600052602060002090600202016001015481526020019081526020016000205490508782815181106109cc576109cc610d32565b506001905050600a8883815181106109e6576109e6610d32565b602002602001015111156109f957600080fd5b878281518110610a0b57610a0b610d32565b602002602001015181610a1e9190610d77565b60036000808581548110610a3457610a34610d32565b906000526020600020906002020160010154815260200190815260200160002081905550508080610a6490610d5e565b915050610975565b600060208284031215610a7e57600080fd5b5035919050565b6000815180845260005b81811015610aab57602081850181015186830182015201610a8f565b506000602082860101526020601f19601f83011685010191505092915050565b604081526000610ade6040830185610a85565b90508260208301529392505050565b6000815160608452610b026060850182610a85565b905060208301516020850152604083015160408501528091505092915050565b602081526000610b356020830184610aed565b9392505050565b634e487b7160e01b600052604160045260246000fd5b600080600060608486031215610b6757600080fd5b833567ffffffffffffffff80821115610b7f57600080fd5b818601915086601f830112610b9357600080fd5b8135602082821115610ba757610ba7610b3c565b8160051b604051601f19603f83011681018181108682111715610bcc57610bcc610b3c565b60405292835281830193508481018201928a841115610bea57600080fd5b948201945b83861015610c0857853585529482019493820193610bef565b9a918901359950506040909701359695505050505050565b6000602080830181845280855180835260408601915060408160051b870101925083870160005b82811015610c7557603f19888603018452610c63858351610aed565b94509285019290850190600101610c47565b5092979650505050505050565b60006020808301818452808551808352604092508286019150828160051b87010184880160005b83811015610cea57888303603f1901855281518051878552610ccd88860182610a85565b918901519489019490945294870194925090860190600101610ca9565b509098975050505050505050565b600181811c90821680610d0c57607f821691505b602082108103610d2c57634e487b7160e01b600052602260045260246000fd5b50919050565b634e487b7160e01b600052603260045260246000fd5b634e487b7160e01b600052601160045260246000fd5b600060018201610d7057610d70610d48565b5060010190565b80820180821115610d8a57610d8a610d48565b9291505056fea26469706673582212205e3374e62de5d03bc3a2b27e5e401985ce4b2c28bf4afac9bc09f2a4ecf8135d64736f6c63430008110033",
  "immutableReferences": {},
  "source": "// SPDX-License-Identifier: GPL-3.0\r\npragma experimental ABIEncoderV2;\r\npragma solidity >=0.4.25 <0.9.0;\r\n\r\nimport \"./Types.sol\";\r\n\r\n/**\r\n    @title Election \r\n    @author Neel Deep Dandiwala\r\n*/\r\n\r\ncontract Election {\r\n    Types.Student[] public students;\r\n    mapping(uint256 => Types.Jury) jury;\r\n    mapping(uint256 => Types.Student) student;\r\n    mapping(uint256 => uint256) internal resultObtainedMarks;\r\n\r\n    address electionMaster;\r\n    uint256 private electionStartTime;\r\n    uint256 private electionEndTime;\r\n\r\n    constructor(uint256 startTime_, uint256 endTime_){\r\n        initializeStudentDatabase_();\r\n        initializeJuryDatabase_();\r\n        electionStartTime = startTime_;\r\n        electionEndTime = endTime_;\r\n        electionMaster = msg.sender;\r\n    }\r\n\r\n    function getStudentsList(uint256 juryAddress) public view returns (Types.Student[] memory) {\r\n        return students;\r\n    }\r\n\r\n    function didCurrentJuryInterview(uint256 juryAddress) public view returns (bool juryInterviewed_) {\r\n        juryInterviewed_ = (jury[juryAddress].juryTookInterview != 0);\r\n        return juryInterviewed_;\r\n\r\n    }\r\n\r\n    function didCurrentJuryDiscussion(uint256 juryAddress) public view returns (bool juryDiscussion_) {\r\n        juryDiscussion_ = (jury[juryAddress].juryTookDiscussion != 0);\r\n        return juryDiscussion_;\r\n\r\n    }\r\n\r\n    function interview (\r\n        uint256[] memory marks, uint256 juryAddress, uint256 currentTime_\r\n    ) \r\n        public\r\n        electionIsOpen(currentTime_)\r\n        isEligibleMarks(juryAddress)\r\n    {\r\n        jury[juryAddress].juryTookInterview = 1;\r\n\r\n        for (uint256 i = 0; i < students.length; i++){\r\n            uint256 resultMarks_ = resultObtainedMarks[students[i].studentId];\r\n            require(0 <= marks[i] && marks[i] <= 10);\r\n            resultObtainedMarks[students[i].studentId] = resultMarks_ + marks[i];\r\n        }\r\n         \r\n    }\r\n\r\n    function discussion (\r\n        uint256[] memory marks, uint256 juryAddress, uint256 currentTime_\r\n    ) \r\n        public\r\n        electionIsOpen(currentTime_)\r\n        isEligibleMarks(juryAddress)\r\n    {\r\n        jury[juryAddress].juryTookDiscussion = 1;\r\n\r\n        for (uint256 i = 0; i < students.length; i++){\r\n            uint256 resultMarks_ = resultObtainedMarks[students[i].studentId];\r\n            require(0 <= marks[i] && marks[i] <= 10);\r\n            resultObtainedMarks[students[i].studentId] = resultMarks_ + marks[i];\r\n        }\r\n         \r\n    }\r\n\r\n    function getElectionEndTime() public view returns (uint256 electionEndTime_) {\r\n        electionEndTime_ = electionEndTime;\r\n    }\r\n\r\n    function getResults(uint256 currentTime_) public view returns (Types.Results[] memory) {\r\n        require(electionEndTime < currentTime_);\r\n        Types.Results[] memory resultDetails_ = new Types.Results[](\r\n            students.length\r\n        );\r\n        for (uint256 i = 0; i < students.length; i++) {\r\n            resultDetails_[i] = Types.Results({\r\n                resultName: students[i].studentName,\r\n                resultMarks: resultObtainedMarks[students[i].studentId],\r\n                resultId: students[i].studentId\r\n            });\r\n        }\r\n\r\n        return resultDetails_;\r\n    }\r\n\r\n    function getWinner(uint256 currentTime_) public view returns (Types.Results memory) {\r\n        require(electionEndTime < currentTime_);\r\n        Types.Results memory winnerDetails_;\r\n        uint256 highestMarks_ = 0;\r\n        for (uint256 i = 0; i < students.length; i++) {\r\n            if (resultObtainedMarks[students[i].studentId] > highestMarks_) {\r\n                highestMarks_ = resultObtainedMarks[students[i].studentId];\r\n                winnerDetails_ = Types.Results({\r\n                    resultName: students[i].studentName,\r\n                    resultMarks: resultObtainedMarks[students[i].studentId],\r\n                    resultId: students[i].studentId\r\n                });\r\n            }\r\n        }\r\n\r\n        return winnerDetails_;\r\n    }\r\n\r\n    modifier electionIsOpen(uint256 currentTime_) {\r\n        require(currentTime_ >= electionStartTime);\r\n        require(currentTime_ <= electionEndTime);\r\n        _;\r\n    }\r\n\r\n    modifier isEligibleMarks(uint256 juryAddress_) {\r\n        Types.Jury memory jury_ = jury[juryAddress_];\r\n        \r\n        require(jury_.juryTookInterview == 0);\r\n        require(jury_.juryTookDiscussion == 0);\r\n        _;\r\n    }\r\n\r\n    modifier isElectionMaster() {\r\n        require(msg.sender == electionMaster);\r\n        _;\r\n    }    \r\n\r\n    function initializeStudentDatabase_() internal {\r\n        Types.Student[] memory students_ =  new Types.Student[](3);\r\n\r\n        students_[0] = Types.Student({\r\n            studentName: \"Keval\",\r\n            studentId: uint256(1)\r\n        });\r\n        students_[1] = Types.Student({\r\n            studentName: \"Atharv\",\r\n            studentId: uint256(2)\r\n        });\r\n        students_[2] = Types.Student({\r\n            studentName: \"Moon\",\r\n            studentId: uint256(3)\r\n        });\r\n\r\n        for(uint256 i = 0; i < students_.length; i++){\r\n            student[students_[i].studentId] = students_[i];\r\n            students.push(students_[i]);\r\n        }\r\n    }\r\n\r\n    function initializeJuryDatabase_() internal {\r\n        jury[uint256(1)] = Types.Jury({\r\n            juryAddress: uint256(11),\r\n            juryTookInterview: uint256(0),\r\n            juryTookDiscussion: uint256(0)\r\n        });\r\n        jury[uint256(2)] = Types.Jury({\r\n            juryAddress: uint256(12),\r\n            juryTookInterview: uint256(0),\r\n            juryTookDiscussion: uint256(0)\r\n        });\r\n        jury[uint256(3)] = Types.Jury({\r\n            juryAddress: uint256(13),\r\n            juryTookInterview: uint256(0),\r\n            juryTookDiscussion: uint256(0)\r\n        });\r\n        jury[uint256(4)] = Types.Jury({\r\n            juryAddress: uint256(14),\r\n            juryTookInterview: uint256(0),\r\n            juryTookDiscussion: uint256(0)\r\n        });\r\n        jury[uint256(5)] = Types.Jury({\r\n            juryAddress: uint256(15),\r\n            juryTookInterview: uint256(0),\r\n            juryTookDiscussion: uint256(0)\r\n        });\r\n    }\r\n}",
  "sourcePath": "D:\\Git-project\\GS_Election\\blockchain\\contracts\\Election.sol",
  "compiler": {
    "name": "solc",
    "version": "0.8.17+commit.8df45f5f.Emscripten.clang"
  },
  "schemaVersion": "3.4.10",
  "updatedAt": "2022-11-12T19:46:39.535Z",
  "devdoc": {
    "author": "Neel Deep Dandiwala",
    "kind": "dev",
    "methods": {},
    "title": "Election ",
    "version": 1
  },
  "userdoc": {
    "kind": "user",
    "methods": {},
    "version": 1
  }
}